
:0600000002062102024A83
:01000B0032C2
:03001300020240A6
:01001B0032B2
:0100230032AA
:100030000000000000000000000000000009600057
:10004000000000000071310000007A736177320017
:10005000006378646534330000207666747235007E
:10006000006E62686779360000006D6A7537380087
:10007000002C6B696F303900002E2F6C3B702D0007
:10008000000027005B3D000000000D5D005C0000EB
:100090000000000000000800000000000000000058
:1000A0000000000000001B00002B002D2A000000B3
:1000B0000000000000000000000000000000000040
:1000C00000096000000000000071310000007A7338
:1000D000617732000063786465343300002076660F
:1000E00074723500006E62686779360000006D6AD0
:1000F00075373800002C6B696F303900002E2F6C7B
:100100003B702D00000027005B3D000000000D5DEE
:10011000005C000000000000000008000031003416
:1001200037000000302E323536381B00002B332DBF
:100130002A3900000000000000000000000000005C
:100140000000000000097E000000000000512100B6
:1001500000005A53415740000043584445242300AF
:100160000020564654522500004E424847595E0032
:1001700000004D4A55262A00003C4B494F292800D3
:10018000003E3F4C3A505F00000022007B2B0000F5
:1001900000000D7D007C0000000000000000080051
:1001A00000000000000000000000000000001B0034
:1001B000002B002D2A0000000000000000000000BD
:1001C000000000000000000000097E0000000000A8
:1001D0000051210000005A53415740000043584449
:1001E000452423000020564654522500004E424824
:1001F00047595E0000004D4A55262A00003C4B49F5
:100200004F292800003E3F4C3A505F00000022007A
:100210007B2B000000000D7D007C00000000000032
:10022000000008000031003437000000302E323565
:1002300036381B00002B332D2A3900000000000047
:10024000A29740030205F00202D175A800050292B0
:10025000D1BA0102801EBA0A028019BA0B0B7502CC
:1002600000853406430701800BF535A290E5341371
:10027000F534E535A2D17536FF75A88532E531F53F
:1002800083E530F5827C03E582C333F582E5833371
:10029000F583DCF3E5822503F582E506F00503BB73
:1002A000072E750300A37420F0E582C39407F5823E
:1002B000793012043B1203FFC3E5302401F53050BE
:1002C000020531E4F582F583A3E530F0A3E531F0D2
:1002D0002275A800759840758920758DFDD28E799C
:1002E0003012043B743071787430717874307178E6
:1002F000E5407178E5417178E5427178E5437178C0
:1003000074207178E531B40007E530B40102805CF7
:10031000750300753201753300E533F583E532F579
:10032000827C03E582C333F582E58333F583DCF316
:10033000E5822503F582E071780503BB07DB7503D1
:100340000074207178E582C39406F5827932120434
:100350003B1203FF120432C3E5322401F53250028E
:100360000533E531B533B2E530B532ADC28E75989F
:100370000075890075A88532C299F5993099FD22DA
:10038000C291C292D293758038C2937C147DFFDDF6
:10039000FEDCFAC291C292D293758038C2937C96E9
:1003A000DCFEC291C292D293758038C2937C96DCF7
:1003B000FE74381203E374081203E374011203E3BA
:1003C00074061203E3740D1203E374011203E322B3
:1003D0007580FFC291D292D293308704C29380F786
:1003E000C29322C291C292D293F580C2931203D0DB
:1003F00022D291C292D293F580C2931203D022747A
:10040000801203E37C07E01203F1A3DCF9742012ED
:1004100003F174C01203E3744E1203F1746F1203FC
:10042000F1742E1203F178407C04E61203F108DC2B
:10043000F9227CFF7DFFDDFEDCFA22754300754268
:1004400000754100754000E75401600778437D0165
:10045000120566E75402600778437D02120566E7DD
:100460005404600778437D04120566E7540860076A
:1004700078437D08120566E75410600E78427D01CE
:1004800012056678437D06120566E75420600E78F3
:10049000427D0312056678437D02120566E75440EB
:1004A000600E78427D0612056678437D041205666B
:1004B000E75480601578417D0112056678427D021F
:1004C00012056678437D0812056609E75401601538
:1004D00078417D0212056678427D051205667843F3
:1004E0007D06120566E75402601578417D05120508
:1004F0006678427D0112056678437D02120566E743
:100500005404601578407D0112056678427D021220
:10051000056678437D04120566E754086015784047
:100520007D0212056678427D0412056678437D08D7
:10053000120566E75410601578407D041205667850
:10054000427D0912056678437D06120566E543245F
:1005500030F543E5422430F542E5412430F541E5EC
:10056000402430F54022E62DF6C3940A4007F618E1
:100570007D0112056622E4F582F583A3E0F530A340
:10058000E0F531E530C39401F53050021531793092
:1005900012043BE531F583E530F5827C03E582C347
:1005A00033F582E58333F583DCF31203FFE530B4E2
:1005B0000032E531B4002D74801203E3742012037D
:1005C000F174521203F174651203F174611203F1B4
:1005D00074641203F174791203F174201203F1743C
:1005E000201203F1C3E5302401F530500205312219
:1005F000E4F582F583A304F0E4A3F07C3C7DFFDD09
:10060000FEDCFA120380120576750600750200758D
:100610000300750700753400753500D28875A8850C
:10062000327C3C7DFFDDFEDCFA120380120576751C
:1006300006007502007503007507007534007535F6
:1006400000D28875A885DC09D536067502007503C9
:100650000074015507B401EE5307FEBE12054307AF
:100660000280E3BE590543070280DBBE77056307BE
:100670000480D3BE580563070880CBBEF01A74010E
:100680005507B401F95307FEBE12055307FD80B6A6
:10069000BE59B35307FD80AEBF0E059000B4803342
:1006A000BF0C059001BC802BBF0A05900030802351
:1006B000BF0805900138801BBF06059001BC801360
:1006C000BF04059000B4800BBF0205900138800381
:1006D000900030E50693F506BE2A03020646BE0DDD
:0C06E0000302064612027D02064680FE60
:00000001FF
