
:03000000020040BB
:03002300020412C2
:100040007A007B0075A0FF7580FF7590FF7520FF1B
:100050007521FF7522FF7523FF7524FF7525FF7538
:1000600026FF7527FF7528FF7529FF1207887598E9
:1000700050758700D29C758920758DFD75A890D22A
:100080008EC298C299C291C2927938773A793D77F7
:1000900021C2907580FF75A07FE580F81207077573
:1000A00080FF75A07FAC80E86C6003020144E854D7
:1000B000017009A2005010C2000200C7A200400750
:1000C000C228D2001206FFE854027009A2015010A3
:1000D000C2010200E0A2014007C229D2011206FFBC
:1000E000E854047009A2025010C2020200F9A202F0
:1000F0004007C22AD2021206FFE854087009A20380
:100100005010C203020112A2034007C22BD20312F5
:1001100006FFE854107009A2045010C20402012B1B
:10012000A2044007C22CD2041206FFE85420700932
:10013000A2055010C205020144A2054007C22DD2FB
:10014000051206FFC2907580FF75A0BFE580F8120A
:1001500007077580FF75A0BFAC80E86C60030201E3
:10016000F7E854017009A2085010C20802017AA2EF
:10017000084007C230D2081206FFE854027009A2F4
:10018000095010C209020193A2094007C231D209E5
:100190001206FFE854047009A20A5010C20A0201B4
:1001A000ACA20A4007C232D20A1206FFE854087015
:1001B00009A20B5010C20B0201C5A20B4007C233AB
:1001C000D20B1206FFE854107009A20C5010C20C9A
:1001D0000201DEA20C4007C234D20C1206FFE85422
:1001E000207009A20D5010C20D0201F7A20D4007A8
:1001F000C235D20D1206FFC2907580FF75A0DFE5F3
:1002000080F81207077580FF75A0DFAC80E86C608E
:10021000030202AAE854017009A2105010C2100291
:10022000022DA2104007C238D2101206FFE8540275
:100230007009A2115010C211020246A2114007C259
:1002400039D2111206FFE854047009A2125010C2EC
:100250001202025FA2124007C23AD2121206FFE84F
:1002600054087009A2135010C213020278A213405E
:1002700007C23BD2131206FFE854107009A21450B3
:1002800010C214020291A2144007C23CD2141206FA
:10029000FFE854207009A2155010C2150202AAA24C
:1002A000154007C23DD2151206FFC2907580FF753A
:1002B000A0EFE580F81207077580FF75A0EFAC800E
:1002C000E86C600302035DE854017009A218501045
:1002D000C2180202E0A2184007C240D2181206FF5C
:1002E000E854027009A2195010C2190202F9A219A9
:1002F0004007C241D2191206FFE854047009A21A3D
:100300005010C21A020312A21A4007C242D21A1295
:1003100006FFE854087009A21B5010C21B02032BF1
:10032000A21B4007C243D21B1206FFE854107009FB
:10033000A21C5010C21C020344A21C4007C244D29B
:100340001C1206FFE854207009A21D5010C21D02A5
:10035000035DA21D4007C245D21D1206FFC2907563
:1003600080FF75A0F7E580F81207077580FF75A07C
:10037000F7AC80E86C6003020410E854017009A235
:10038000205010C220020393A2204007C248D2206E
:100390001206FFE854027009A2215010C221020384
:1003A000ACA2214007C249D2211206FFE8540470D2
:1003B00009A2225010C2220203C5A2224007C24A4B
:1003C000D2221206FFE854087009A2235010C2235B
:1003D0000203DEA2234007C24BD2231206FFE854D9
:1003E000107009A2245010C2240203F7A22440076F
:1003F000C24CD2241206FFE854207009A2255010E6
:10040000C225020410A2254007C24DD2251206FFC4
:10041000019120980302049BBB00047B01793030DA
:1004200098FDC298E599F709B937707B00D29079A9
:1004300030E77938677062793DE77930096770593C
:10044000793DE77930090967704F793DE7793009DF
:1004500009096770447939E7793009090909677032
:1004600038793AE77930090909090967702B793039
:1004700009E70967096709670967793009090909FF
:100480000909677014D2901206F712071012049E21
:1004900012071012075E02049BD290C29932A22862
:1004A0004010793B7730793C7731120707120730DB
:1004B000D228A2294010793B7730793C7732120755
:1004C00007120730D229A22A4010793B7730793CB5
:1004D0007733120707120730D22AA22B4010793B3C
:1004E0007730793C7734120707120730D22BA22CD1
:1004F0004010793B7730793C773512070712073087
:10050000D22CA22D4010793B7730793C77361207F8
:1005100007120730D22DA2304010793B7730793C5A
:100520007737120707120730D230A2314010793BDB
:100530007730793C7738120707120730D231A23270
:100540004010793B7730793C773912070712073032
:10055000D232A2334010793B7731793C77301207A1
:1005600007120730D233A2344010793B7731793CFF
:100570007731120707120730D234A2354010793B89
:100580007731793C7732120707120730D235A2381B
:100590004010793B7731793C7733120707120730E7
:1005A000D238A2394010793B7731793C7734120741
:1005B00007120730D239A23A4010793B7731793CA3
:1005C0007735120707120730D23AA23B4010793B29
:1005D0007731793C7736120707120730D23BA23CBD
:1005E0004010793B7731793C773712070712073093
:1005F000D23CA23D4010793B7731793C77381207E5
:1006000007120730D23DA2404010793B7731793C48
:100610007739120707120730D240A2414010793BC8
:100620007732793C7730120707120730D241A24265
:100630004010793B7732793C773112070712073047
:10064000D242A2434010793B7732793C773212078D
:1006500007120730D243A2444010793B7732793CED
:100660007733120707120730D244A2454010793B76
:100670007732793C7734120707120730D245A24807
:100680004010793B7732793C7735120707120730F3
:10069000D248A2494010793B7732793C773612072D
:1006A00007120730D249A24A4010793B7732793C91
:1006B0007737120707120730D24AA24B4010793B16
:1006C0007732793C7738120707120730D24BA24CA9
:1006D0004010793B7732793C77391207071207309F
:1006E000D24CA24D4010793B7733793C77301207DA
:1006F00007120730D24D22D292120710C29222D294
:1007000091120710C291227E9F7D00DDFEDEFA224B
:100710007E007D00DDFEDEFA227F047E007D00DDAE
:10072000FEDEFADFF622D290F5993099FDC29922C9
:100730007938E7F1267424F1267939E7F126793AF8
:10074000E7F126793BE7F126793CE7F12674247935
:100750003967793A67793B67793C67F126227938BE
:10076000E7F1267426F1267426F1267426F12679FF
:1007700039E7F126793AE7F126742664266426796A
:100780003967793A67F12622F119E59054F8FAB4FD
:10079000080B79397730793A7731020941B4100B77
:1007A00079397730793A7732020941B4180B7939BF
:1007B0007730793A7733020941B4200B79397730B1
:1007C000793A7734020941B4280B79397730793A8C
:1007D0007735020941B4300B79397730793A773679
:1007E000020941B4380B79397730793A7737020901
:1007F00041B4400B79397730793A7738020941B4FE
:10080000480B79397730793A7739020941B4500B7E
:1008100079397731793A7730020941B4580B79390F
:100820007731793A7731020941B4600B7939773100
:10083000793A7732020941B4680B79397731793ADC
:100840007733020941B4700B79397731793A7734CB
:10085000020941B4780B79397731793A7735020951
:1008600041B4800B79397731793A7736020941B44E
:10087000880B79397731793A7737020941B4900B8F
:1008800079397731793A7738020941B4980B793957
:100890007731793A7739020941B4A00B7939773247
:1008A000793A7730020941B4A80B79397732793A2D
:1008B0007731020941B4B00B79397732793A77321E
:1008C000020941B4B80B79397732793A77330209A2
:1008D00041B4C00B79397732793A7734020941B49F
:1008E000C80B79397732793A7735020941B4D00BA0
:1008F00079397732793A7736020941B4D80B7939A8
:100900007732793A7737020941B4E00B7939773297
:10091000793A7738020941B4E80B79397732793A74
:100920007739020941B4F00B79397733793A773066
:10093000020941B4F80B79397733793A77310209F2
:02094000412252
:00000001FF
