:1000000009280000000000000000000000000000BF
:1000100000008316003085000030860000308B0021
:10002000003081008312003081008500860001309D
:1000300095000230940099309600213084002920E8
:100040002108FE3E03183E282208FD3E03183E28E4
:1000500042288316160814078D00063E831831289F
:100060000D088D00603E031836280D088000031C23
:100070003D28840A150A8000840308008312FF309B
:10008000850041288312FF30850086004628000045
:00000001FF
