:1000000009280000000000000000000000000000BF
:1000100000008316003085000030860000308B0021
:10002000003081008312003081008500860000309E
:1000300092004E202108FF3E031876282208FF3E3A
:1000400003187628643092004E202108FF3E0318E2
:1000500076282208FE3E03187628FF3092004E20B4
:100060002108AA3E031876282208FD3E03187628A8
:100070007A288316160814078D00063E8318412837
:100080000D088D00603E031846280D088000031CF3
:100090004D28840A150A800084030800003090006F
:1000A000A100A2000830910012088E00920C031CDF
:1000B0006328210894002208950010086D209600FE
:1000C000213084003920900A910B56280E089200A6
:1000D0008E0D031C6C28A20A08008207013402342A
:1000E0000434083416343234643428348312FF3034
:1000F000850079288312FF30850086007E28000065
:00000001FF
