:020000000928CD
:0E0012008316013085000130860000308B001F
:1000200083120030850003308600FF30A30085185E
:100030001F2805191D282C202528392025280519B9
:1000400023283120252839203920A30A23080F39F5
:1000500041208600850917281930A100A10B2E2800
:1000600008001930A200A20B362838282C2033288B
:100070000800FF308D008D0B3E28402831203B28A2
:100080000800820703349F3425340D3499344934F1
:1000900041341B34013409341134C13463348534A0
:0600A00061347134000020
:00000001FF
