:1000000009280000000000000000000000000000BF
:1000100000008316003085000030860000308B0021
:100020000030810083120030810085008600073097
:1000300083005A30A53A031C9D28831C9D28031970
:100040009D28013E031C9D28003083000030003AAB
:1000500003189D2883189D28031D9D28FF3E031823
:100060009D2807308300A5308F005A300F04031CF1
:100070009D28831C9D2803199D28013E031C9D2853
:10008000073083005A308F00A5308F04031C9D2851
:10009000831C9D2803199D280F08013E031C9D28E1
:1000A0000730830000308F0000300F04031C9D28B0
:1000B000831C9D28031D9D28FF3E03189D280030AA
:1000C00083005A308F008F0103189D2883189D28C4
:1000D000031D9D280F08FF3E03189D280030830054
:1000E0005A30030103189D2883189D28031D9D285D
:1000F000FF3E03189D28073083005A308F000F09F8
:10010000031C9D28831C9D2803199D285B3E031D0D
:100110009D2800308300FF308F008F0903189D2831
:1001200083189D28031D9D280F08FF3E03189D2856
:100130008312FF30850086009C288312FF308500E3
:04014000A0280000F3
:00000001FF
