:1000000009280000000000000000000000000000BF
:1000100000008316003085000030860000308B0021
:100020000030810083120030810085008600073097
:100030008300FF308F008F03031C5728831C572831
:10004000031957280F08023E031C57280730830066
:1000500000308F008F03031C5728831C5728031977
:1000600057280F08013E031C572807308300FF3034
:100070008F000F0A031C5728831C5728031D57287D
:10008000FF3E03185728073083000F308F008F0A78
:10009000031C5728831C5728031957280F08F03EC4
:1000A000031C57288312FF308500860056288312D0
:0800B000FF3085005A28000012
:00000001FF
