:1000000009280000000000000000000000000000BF
:1000100000008316003085000030860000308B0021
:1000200000308100831200308100850086007F301F
:100030008F000730830000300F07031893288318C0
:10004000932803199328903E031C93287F308F0038
:10005000053083000F308F0703189328831C9328E3
:10006000031993280F08803E031C932800308F004B
:100070000630830000300F07031893288318932855
:10008000031D93287F308F0004308300FF300F075B
:10009000031C9328831C932803199328073083009B
:1000A0000030FF3E031893288318932803199328E0
:1000B00004308300FF30FF3E031C9328831C9328E9
:1000C00003199328073083000030003E031893285B
:1000D00083189328031D932800308300AA305539D4
:1000E0000318932883189328031D93280030830056
:1000F000AA308F0055300F050318932883189328D2
:10010000031D932800308300AA308F0055308F05DF
:100110000318932883189328031D93288312FF3014
:100120008500860092288312FF3085009628000003
:00000001FF
