:1000000009280000000000000000000000000000BF
:1000100000008316003085000030860000308B0021
:100020000030810083120030810085008600073097
:100030008300FF308F000F10031CB128831CB128F0
:10004000031DB1280F18B1288F10031CB128831C81
:10005000B128031DB1288F18B1280F11031CB12836
:10006000831CB128031DB1280F19B1288F11031C5F
:10007000B128831CB128031DB1288F19B1280F1294
:10008000031CB128831CB128031DB1280F1AB12805
:100090008F12031CB128831CB128031DB1288F1AAD
:1000A000B1280F13031CB128831CB128031DB128EC
:1000B0000F1BB1288F13031CB128831CB128031D0B
:1000C000B1288F1BB1280730830000308F000F1438
:1000D000031CB128831CB128031DB1280F1CB128B3
:1000E0008F14031CB128831CB128031DB1288F1C59
:1000F000B1280F15031CB128831CB128031DB1289A
:100100000F1DB1288F15031CB128831CB128031DB6
:10011000B1288F1DB1280F16031CB128831CB128EC
:10012000031DB1280F1EB1288F16031CB128831C94
:10013000B128031DB1288F1EB1280F17031CB12849
:10014000831CB128031DB1280F1FB1288F17031C72
:10015000B128831CB128031DB1288F1FB1280000CE
:10016000B5288312FF308500B4288312FF30850044
:060170008600B928000022
:00000001FF
