:1000000009280000000000000000000000000000BF
:1000100000008316003085000030860000308B0021
:100020000030810083120030810085008600FF309F
:100030008F00043083007F300F02031CC528831C0F
:10004000C5280319C528803E031CC528FF308F0032
:1000500000308300FF308F02031CC528831CC52895
:10006000031DC52800308F0007308300FF300F02CA
:100070000318C5288318C5280319C528FF3E031C8B
:10008000C52800308F000430830001300F020318B0
:10009000C5288318C5280319C528013E031CC52897
:1000A000043083007F30FF3C031CC528831CC52817
:1000B0000319C528803E031CC52800308300FF308B
:1000C000FF3C031CC528831CC528031DC528073019
:1000D0008300FF30003C0318C5288318C528031986
:1000E000C528FF3E031CC528043083008130803CB6
:1000F0000318C5288318C5280319C528013E031C09
:10010000C52807308300AA30553A031CC528831C34
:10011000C5280319C528013E031CC52800308300EB
:10012000FF30FF3A0318C5288318C528031DC528CA
:100130000730830055308F00AA308F06031CC52876
:10014000831CC5280319C5280F08013E031CC528B8
:1001500000308300FF308F00FF300F060318C528E2
:100160008318C528031DC5280730830000308F0081
:1001700000308F06031CC528831CC528031DC52815
:100180008312FF3085008600C4288312FF3085006B
:04019000C82800007B
:00000001FF
