:1000000009280000000000000000000000000000BF
:1000100000008316003085000030860000308B0021
:100020000030810083120030810085008600063098
:100030008300AF308F000F0D8F000F0D8F000F0D5D
:100040008F000F0D8F000F0D8F000F0D8F000F0D04
:100050008F000F0D8F000F0D8F000318D828831C01
:10006000D828031DD828513E031CD8280630830009
:10007000AF308F008F0D8F0D8F0D8F0D8F0D8F0D6A
:100080008F0D8F0D8F0D0318D828831CD828031DC2
:10009000D8280F08513E031CD82806308300203092
:1000A0008400AF308000800D800D800D800D800DAC
:1000B000800D800D800D800D0318D828831CD82852
:1000C000031DD8280008513E031CD82806308300A1
:1000D000FA308F000F0C8F000F0C8F000F0C8F0069
:1000E0000F0C8F000F0C8F000F0C8F000F0C8F0068
:1000F0000F0C8F000F0C8F000318D828831CD828F2
:10010000031DD828063E031CD82806308300FA3089
:100110008F008F0D8F0D8F0D8F0D8F0D8F0D8F0D0C
:100120008F0D8F0D0318D828831CD828031DD828BD
:100130000F08063E031CD8280630830020308400B8
:10014000FA308000800C800C800C800C800C800CBD
:10015000800C800C800C0318D828831CD828031D21
:10016000D8280008063E031CD82807308300A53095
:100170008F000F0E031CD828831CD828031DD828F5
:100180000F04013E031CD828073083005A308F002B
:100190008F0E031CD828831CD828031DD8280F04D1
:1001A000013E031CD8288312FF3085008600D72823
:0A01B0008312FF308500DB280000F9
:00000001FF
