:1000000009280000000000000000000000000000BF
:1000100000008316003085000030860000308B0021
:100020000030810083120030810085008600063098
:100030008300FF3000000000013E031C6528831C84
:100040006528031D65280A08E7398A005F200A0829
:1000500018388A005F200A08E7398A006320013EC9
:10006000031C65280A0818388A006320013E031C17
:10007000652800308F008F0F3E2865280F08FF3E4F
:10008000031843286528FF308F000F0F6528FF3EB7
:10009000031C4B28652801308F000F0B6528FF3E9D
:1000A000031C53286528FF308F008F0B58286528C4
:1000B0000F08013E031C692865285E2808005D20A2
:1000C0000800622808006120FF348312FF30850099
:0E00D00068288312FF30850086006D2800002E
:00000001FF
