
:040000000200403288
:03000B000204AA42
:030013000206885A
:01001B0032B2
:030023000206CE04
:10004000758135120401120437120493D2ACD2A97F
:05005000D2AA020080AD
:10008000E521B46004D2AC80F7B4610ED290900F39
:10009000F07483F074A9F00203CEB46217900FF0ED
:1000A0007403F07412F07429F07422F07419F0C221
:1000B000900203CEB46309900FF07489F00203CE6E
:1000C000B46409900FF07409F00203CEB46505D250
:1000D000300203CEB46605C2300203CEB4670CE42E
:1000E000F52CF52DF52ED2320203CEB46805C232BE
:1000F0000203CEB4690B752F46753000D23302036C
:10010000CEB46A13E4F529F52AF52BD204751EC87E
:10011000C204D2340203CEB46B08E4F518F5190218
:1001200003CEB46C0C1207ED4004900FF1F0020303
:10013000CEB46D101207ED4007F52212071F0180A3
:10014000D2AC0180B46E0B75216085252212071F89
:100150000180B46F09900FF07499F00203CEB4706F
:1001600009900FF07419F00203CEB47109900FF0EA
:1001700074A2F00203CEB47209900FF07422F00260
:1001800003CEB47305D2910203CEB47405C29102BA
:1001900003CEB47505C2920203CEB47605D29202A4
:1001A00003CEB47705D2380203CEB47805C2380244
:1001B00003CEB47905D2390203CEB47A05C239022E
:1001C00003CEB47B07D2B5D23A0203CEB47C07C2C9
:1001D000B5C23A0203CEB47D05D23B0203CEB47E53
:1001E00005C23B0203CEB47F09900FF07480F00289
:1001F00003CEB48009900FF07400F00203CEB481F6
:1002000009900FF07492F00203CEB48209900FF0BF
:100210007412F00203CEB48309900FF07490F002D0
:1002200003CEB48409900FF07410F00203CEB485AD
:1002300009900FF07483F00203CEB48609900FF09A
:100240007403F00203CEB4900302024F0203CEE522
:1002500034B4012C2093153097121203D5C292D2D8
:1002600004751E64C2047534050203C5304207D20A
:1002700038C2420203C5304304C238C2430203C538
:10028000B4053130040EC2B5C23AC240D2927534C0
:10029000010203C530931A209717E4F518F519D217
:1002A00090900FF07489F07483F0C291D2927534FB
:1002B0000A0203C5B40A69E518B407004020D23920
:1002C00030411B300318900FF07490F07409F01255
:1002D00007ED4004900FF1F07534140203C530426D
:1002E0002330400320020FC2B5C23AC240C241D2FD
:1002F00038C2420203C5D241D203751D64C203C293
:10030000420203C530430AC2381203D5C243020376
:10031000C52093093097061203E77534230203C5FD
:10032000B41442E519B40714C239900FF0E510F087
:10033000E503F0E580F07534190203C5304317C2B8
:1003400038C2B5C23AC240C241753219D23B753487
:100350001EC2430203C52093093097061203E775B6
:1003600034230203C5B41929304317C238C2B5C2B9
:100370003AC240C241753219D23B75341EC24302A3
:1003800003C52093093097061203E775342302034F
:10039000C5B41E0F2093093097061203E775342366
:1003A0000203C5B4231F304207D238C2420203C53C
:1003B000304307C238C2430203C530930820970573
:1003C000D292753401E521B49009D2AC414F752128
:1003D00060D2AC0180D2B5D23AD240D202751C6450
:1003E000C202C241D20322C239C23BC2B5C23AC222
:1003F00040C241C292D291C290C23820B402D238D7
:100400002275870075A80074FCF59074FFF580F5DF
:10041000A074DFF5B075B8027598407589217588AC
:1004200005758DFD758CB8758A00D28ED28CD29CE4
:10043000C298C299D2AF22C0D0C0E0E4F518F51935
:10044000F51AF51BF51CF51DF51E7520FF7521909D
:10045000F522F523F526F528F527F52CF52DF52EB3
:10046000752F46F530F529F52AF52B7531197532BA
:10047000C87533C8753401F525A2959228A2B492A7
:1004800029A2B29245D22F852524A2B49244D0E06D
:10049000D0D022C0E0900FF9E0E4F0F07408F0E46E
:1004A000F0E0740DF0E4F0D0E022C0D0C0E0C28CE7
:1004B000758CB8758A00D28CA2959228A2B4922924
:1004C000C22AC22BC22CD22F303241E52C7006201A
:1004D000B23A304537052CE52CB41900401CE52D07
:1004E000B40800400BE52EB408004004D22AC22212
:1004F000E4F52CF52DF52E02050CB40C0040083067
:10050000B20A052E02050C20B202052D30332AD581
:100510002F1BE530B42D004007D22BC22302052447
:10052000C22BD223752F46753000020539E52FB452
:100530003200500520B2020530303453200430E53B
:1005400029700620B2493045460529E529B419002D
:10055000500820B23A052A02058FB4640050030205
:10056000058FB49600500830B225052B02058FE5A3
:100570002AB41400400EE52BB428004007D22CC248
:1005800024020588C22CD224E4F529F52AF52BE5AE
:100590002652245525B524030205AA30AC0C75213A
:1005A0006E302A02C232C233C234852524A2B292EE
:1005B0004520421720431420440830B40AD2430295
:1005C00005C720B402D242A2B49244C083C0829034
:1005D0000FF0303815D531067531190205E5E531D2
:1005E000B40D00400574E80205EC7468F030391F62
:1005F000C23BD532067532C802062AE532B4AF00D6
:100600005028B4A2005028B48900402302062A30A2
:100610003B1DD5320675321902062AE532B40D00AB
:10062000400DB41900400375321874EA02063174A3
:100630006AF0303A1FD533067533C802064FE533EA
:10064000B4AF00500AB4A200500AB4890040057447
:10065000E40206567464F0D082D083200005D51AD7
:1006600002D200200105D51B02D201200205D51CB3
:1006700002D202200305D51D02D203200405D51E97
:1006800002D204D0E0D0D032C0D0C0E0C0F089F0B7
:10069000900FF9E0900FF120E20620E1220206C55A
:1006A00020E109E0540F1207CB0206C5E0540FC049
:1006B000E01207ED400FF0D0E01207CB0206C512A2
:1006C00007ED4001F0A9F0D0F0D0E0D0D032C2ACBC
:1006D000C0D0C0E0C2991206F3309812E599C298D2
:1006E000B43A061206F40206EE7421120778D0E03E
:1006F000D0D022321207824020F5231207824019FF
:1007000025237015E523B460004005F52102071389
:100710001207CB742312077822742112077822C2A1
:10072000ACC299743A1207781208872098223000D8
:10073000FA020739743A120778E522120835E522E1
:10074000F40412083512076240EAB423E7D2AC225F
:10075000E599C298B43A05D1F402076174211207F1
:10076000782220980D12088F2098073001FAD302C2
:100770000777E599C3C29822C299F5993099FDC2CD
:100780009922C0F0F16240191207A5B80113C4F50F
:10079000F0F162400C1207A5B8010645F0C302074C
:1007A000A2D3D0F022B43A004014B441004019B4AE
:1007B000470040030207C8540F2409780122B430CF
:1007C000004005540F780122780222C0A8C2AAC2B4
:1007D000ACC0E0E51804540FB51906D0E0D0A8D39A
:1007E00022F5182408F9D0E0F7D0A8C322C0A8C287
:1007F000AAC2ACE519B51804D0A8D32204540FF549
:10080000192408F9E7D0A8C322B461004009B47BD9
:1008100000400122C3942022C0E0C4120826FAD06E
:10082000E0120826FB22540FB40A00500344302281
:1008300094094440221118EA120778EB1207782233
:10084000C0E0C082C083E4936006120778A380F6FC
:10085000D083D082D0E022C0E0C0F075F0E6D5F0C1
:10086000FD75F0E6D5F0FDD5E0F1D0F0D0E022C086
:10087000E0C0F0F5F074FA1157115711571157D520
:10088000F0F3D0F0D0E022D200751A01C20022D2DB
:0708900001751B32C20122B9
:00000001FF
