
:040000000200403288
:03000B000201EE01
:03001300020307DE
:01001B0032B2
:0300230002034D88
:1000400075813112015512018B1201D7D2ACD2A9A0
:05005000D2AA020080AD
:10008000E521B46004D2AC80F7B46114D290900F33
:10009000F07492F07499F074A2F074A9F002014E19
:1000A000B46214900FF07412F07419F07422F074AA
:1000B00029F0C29002014EB46309900FF07489F0E8
:1000C00002014EB46409900FF07409F002014EB4BD
:1000D0006505D23002014EB46605C23002014EB44D
:1000E000670CE4F52CF52DF52ED23202014EB468E2
:1000F00005C23202014EB4690B752F46753000D22D
:100100003302014EB46A0CE4F529F52AF52BD234FA
:1001100002014EB46B08E4F518F51902014EB46CF7
:100120000C12046C4004900FF1F002014EB46D10FB
:1001300012046C4007F52212039E0180D2AC0180AC
:10014000B46E0B75216085252212039E01807521F6
:1001500060D2AC018075870075A80074FCF59074BE
:10016000FFF580F5A074DFF5B075B802759840759D
:100170008921758805758DFD758CB8758A00D28EBC
:10018000D28CD29CC298C299D2AF22C0D0C0E0E437
:10019000F518F519F51AF51BF51CF51DF51E75205A
:1001A000FF752160F522F523F526F528F527F52CB6
:1001B000F52DF52E752F46F530F529F52AF52BF599
:1001C00025A2959228A2B49229A2B29238D22F8564
:1001D0002524D0E0D0D022C0E0900FF9E0E4F0F088
:1001E0007408F0E4F0E0740DF0E4F0D0E022C0D048
:1001F000C0E0A2959228A2B49229C22AC22BC22C96
:10020000D22F303241E52C700620B23A3038370513
:100210002CE52CB41900401CE52DB40800400BE57A
:100220002EB408004004D22AC222E4F52CF52DF5A4
:100230002E020246B40C00400830B20A052E02021B
:100240004620B202052D30332AD52F1BE530B42DC0
:10025000004007D22BC22302025EC22BD223752F8D
:1002600046753000020273E52FB43200500520B20B
:10027000020530303450E529700620B24930384646
:100280000529E529B41900500820B23A052A0202CE
:10029000C6B4640050030202C6B4C800500830B2AD
:1002A00025052B0202C6E52AB41400400EE52BB446
:1002B00050004007D22CC2240202BFC22CD224E438
:1002C000F529F52AF52BE52652245525B5240302F8
:1002D00002E130AC0C75216E302A02C232C233C248
:1002E00034852524A2B29238C28C758CB8758A00E8
:1002F000D28C200005D51A02D200200105D51B02A0
:10030000D201D0E0D0D032C0D0C0E0C0F089F090AF
:100310000FF9E0900FF120E20620E12202034420D1
:10032000E109E0540F12044A020344E0540FC0E014
:1003300012046C400FF0D0E012044A02034412048D
:100340006C4001F0A9F0D0F0D0E0D0D032C2ACC007
:10035000D0C0E0C299120372309812E599C298B4E5
:100360003A0612037302036D74211203F7D0E0D032
:10037000D022321204014020F52312040140192535
:10038000237015E523B460004005F52102039212A5
:10039000044A74231203F72274211203F722C2AC19
:1003A000C299743A1203F71205032098223000FA1A
:1003B0000203B8743A1203F7E5221204B4E522F4FA
:1003C000041204B41203E140EAB423E7D2AC22E5FC
:1003D00099C298B43A0571730203E074211203F7CD
:1003E0002220980D12050B2098073001FAD3020342
:1003F000F6E599C3C29822C299F5993099FDC29940
:1004000022C0F071E14019120424B80113C4F5F0C0
:1004100071E1400C120424B8010645F0C302042126
:10042000D3D0F022B43A004014B441004019B4478C
:10043000004003020447540F2409780122B430001D
:100440004005540F780122780222C0A8C2AAC2AC8B
:10045000C0E0E51804540FB51906D0E0D0A8D322A7
:10046000F5182408F9D0E0F7D0A8C322C0A8C2AA82
:10047000C2ACE519B51804D0A8D32204540FF5195D
:100480002408F9E7D0A8C322B461004009B47B0076
:10049000400122C3942022C0E0C41204A5FAD0E097
:1004A0001204A5FB22540FB40A00500344302294D6
:1004B000094440229197EA71F7EB71F722C0E0C03E
:1004C00082C083E493600571F7A380F7D083D08264
:1004D000D0E022C0E0C0F075F0E6D5F0FD75F0E6A2
:1004E000D5F0FDD5E0F1D0F0D0E022C0E0C0F0F5CD
:1004F000F074FA91D391D391D391D3D5F0F3D0F096
:10050000D0E022D200751A01C20022D201751B323E
:03051000C2012203
:00000001FF
