
:040000000200403288
:03000B0002021ED0
:03001300020337AE
:01001B0032B2
:0300230002037D58
:100040007581311201851201BB120207D2ACD2A90F
:05005000D2AA020080AD
:10008000E521B46004D2AC80F7B46111D290900F36
:10009000F07483F07492F074A9F002017EB46217D8
:1000A000900FF07403F07412F07419F07422F0746D
:1000B00029F0C29002017EB46309900FF07489F0B8
:1000C00002017EB46409900FF07409F002017EB45D
:1000D0006505D23002017EB46605C23002017EB4ED
:1000E000670CE4F52CF52DF52ED23202017EB468B2
:1000F00005C23202017EB4690B752F46753000D2FD
:100100003302017EB46A0CE4F529F52AF52BD234CA
:1001100002017EB46B08E4F518F51902017EB46C97
:100120000C12049C4004900FF1F002017EB46D109B
:1001300012049C4007F5221203CE0180D2AC01804C
:10014000B46E0B7521608525221203CE0180B46F39
:1001500009900FF07499F002017EB47009900FF0CD
:100160007419F002017EB47109900FF074A2F002CC
:10017000017EB47209900FF07422F002017E7521A5
:1001800060D2AC018075870075A80074FCF590748E
:10019000FFF580F5A074DFF5B075B802759840756D
:1001A0008921758805758DFD758CB8758A00D28E8C
:1001B000D28CD29CC298C299D2AF22C0D0C0E0E407
:1001C000F518F519F51AF51BF51CF51DF51E75202A
:1001D000FF752160F522F523F526F528F527F52C86
:1001E000F52DF52E752F46F530F529F52AF52BF569
:1001F00025A2959228A2B49229A2B29238D22F8534
:100200002524D0E0D0D022C0E0900FF9E0E4F0F057
:100210007408F0E4F0E0740DF0E4F0D0E022C0D017
:10022000C0E0A2959228A2B49229C22AC22BC22C65
:10023000D22F303241E52C700620B23A30383705E3
:100240002CE52CB41900401CE52DB40800400BE54A
:100250002EB408004004D22AC222E4F52CF52DF574
:100260002E020276B40C00400830B20A052E0202BB
:100270007620B202052D30332AD52F1BE530B42D60
:10028000004007D22BC22302028EC22BD223752F2D
:10029000467530000202A3E52FB43200500520B2AB
:1002A000020530303450E529700620B24930384616
:1002B0000529E529B41900500820B23A052A02029E
:1002C000F6B4640050030202F6B4C800500830B21D
:1002D00025052B0202F6E52AB41400400EE52BB4E6
:1002E00050004007D22CC2240202EFC22CD224E4D8
:1002F000F529F52AF52BE52652245525B5240302C8
:10030000031130AC0C75216E302A02C232C233C2E6
:1003100034852524A2B29238C28C758CB8758A00B7
:10032000D28C200005D51A02D200200105D51B026F
:10033000D201D0E0D0D032C0D0C0E0C0F089F0907F
:100340000FF9E0900FF120E20620E1220203742071
:10035000E109E0540F12047A020374E0540FC0E084
:1003600012049C400FF0D0E012047A0203741204CD
:100370009C4001F0A9F0D0F0D0E0D0D032C2ACC0A7
:10038000D0C0E0C2991203A2309812E599C298B485
:100390003A061203A302039D7421120427D0E0D071
:1003A000D022321204314020F523120431401925A5
:1003B000237015E523B460004005F5210203C21245
:1003C000047A742312042722742112042722C2AC57
:1003D000C299743A1204271205332098223000FA89
:1003E0000203E8743A120427E5221204E4E522F439
:1003F000041204E412041140EAB423E7D2AC22E56B
:1004000099C298B43A0571A302041074211204270A
:100410002220980D12053B2098073001FAD30204E0
:1004200026E599C3C29822C299F5993099FDC299DF
:1004300022C0F091114019120454B80113C4F5F010
:100440009111400C120454B8010645F0C302045146
:10045000D3D0F022B43A004014B441004019B4475C
:10046000004003020477540F2409780122B43000BD
:100470004005540F780122780222C0A8C2AAC2AC5B
:10048000C0E0E51804540FB51906D0E0D0A8D32277
:10049000F5182408F9D0E0F7D0A8C322C0A8C2AA52
:1004A000C2ACE519B51804D0A8D32204540FF5192D
:1004B0002408F9E7D0A8C322B461004009B47B0046
:1004C000400122C3942022C0E0C41204D5FAD0E037
:1004D0001204D5FB22540FB40A0050034430229476
:1004E0000944402291C7EA9127EB912722C0E0C03E
:1004F00082C083E49360059127A380F7D083D082E4
:10050000D0E022C0E0C0F075F0E6D5F0FD75F0E671
:10051000D5F0FDD5E0F1D0F0D0E022C0E0C0F0F59C
:10052000F074FAB103B103B103B103D5F0F3D0F025
:10053000D0E022D200751A01C20022D201751B320E
:03054000C20122D3
:00000001FF
