
:040000000200403288
:03000B000204905C
:0300130002066E74
:01001B0032B2
:030023000206B41E
:100040007581361203E712041D1204797402120836
:0A00500056D2ACD2A9D2AA02008059
:10008000E521B46004D2AC80F7B4610ED290900F39
:10009000F07483F074A9F002039DB46217900FF01E
:1000A0007403F07412F07429F07422F07419F0C221
:1000B0009002039DB46309900FF07489F002039DD0
:1000C000B46409900FF07409F002039DB46505D281
:1000D0003002039DB46605C23002039DB4670CE490
:1000E000F52CF52DF52ED23202039DB46805C232EF
:1000F00002039DB4690B752F46753000D23302039D
:100100009DB46A13E4F529F52AF52BD204751EC8AF
:10011000C204D23402039DB46B08E4F518F5190249
:10012000039DB46C0C1207D34004900FF1F002034E
:100130009DB46D101207D34007F522120705018008
:10014000D2AC0180B46E0B752160852522120705A3
:100150000180B46F09900FF07499F002039DB470A0
:1001600009900FF07419F002039DB47109900FF01B
:1001700074A2F002039DB47209900FF07422F00291
:10018000039DB47305D29102039DB47405C291021C
:10019000039DB47505C29202039DB47605D2920206
:1001A000039DB47705D23802039DB47805C23802A6
:1001B000039DB47905D23902039DB47A05C2390290
:1001C000039DB47B07D2B5D23A02039DB47C07C22B
:1001D000B5C23A02039DB47D05D23B02039DB47EB5
:1001E00005C23B02039DB47F09900FF07480F002BA
:1001F000039DB48009900FF07400F002039DB48158
:1002000009900FF07492F002039DB48209900FF0F0
:100210007412F002039DB48309900FF07490F00201
:10022000039DB48409900FF07410F002039DB4850F
:1002300009900FF07483F002039DB48609900FF0CB
:100240007403F002039DB48705D29002039DB48825
:1002500005C29002039DB4900302025F02039DE574
:1002600034B4014E2093281203A4C292E4F518F589
:1002700019F535D290900FF07489F07483F0C29123
:10028000D292D204751EFAC20475340A0203943065
:100290004216C292D290C291D292900FF07480F026
:1002A00075341EC242020394304304C238C2430272
:1002B0000394B40A773004091203B9753423020396
:1002C00094E535B51800500A851835D204751EFA24
:1002D000C204E518B407004020D23930411B300376
:1002E00018900FF07490F07409F01207D340049046
:1002F0000FF1F07534140203943042233040032090
:10030000020FC2B5C23AC240C241D238C242020351
:1003100094D241D203751D64C203C24202039430D9
:100320004307C2381203A4C243020394B41427E55E
:1003300019B40714C239900FF07410F07403F074FC
:1003400080F075341E0203943043081203B97534EB
:1003500023C243020394B41E0E3043081203B9753E
:100360003423C243020394B4232A30040BD29230C4
:100370009306753401020394304207D238C2420218
:100380000394304307C238C243020394309305D22A
:1003900092753401E521B49009D2AC415F752160BA
:1003A000D2AC0180D2B57533C8D23AD240D20275F0
:1003B0001C2DC202C241D20322C0E0C239C23B7529
:1003C00032C8C2B5C23AC240C241C292D291C290B2
:1003D000D204751E32C204900FF07400F0C23820AF
:1003E000B402D238D0E02275870075A80074FEF5FB
:1003F0009074FFF580F5A074DFF5B075B8027598BC
:1004000040758921758805758DFD758CB8758A00D4
:10041000D28ED28CD29CC298C299D2AF22C0D0C008
:10042000E0E4F518F519F51AF51BF51CF51DF51E98
:100430007520FF752190F522F523F526F528F5277F
:10044000F52CF52DF52E752F46F530F529F52AF505
:100450002B7531197532C87533C8753401F525A26D
:10046000959228A2B49229A2B29245D22F85252432
:10047000A2B49244D0E0D0D022C0E0900FF9E0E4E2
:10048000F0F07408F0E4F0E0740DF0E4F0D0E02255
:10049000C0D0C0E0C28C758CB8758A00D28CA29591
:1004A0009228A2B49229C22AC22BC22CD22F303257
:1004B00041E52C700620B23A304537052CE52CB4C6
:1004C0001900401CE52DB40800400BE52EB40800CF
:1004D0004004D22AC222E4F52CF52DF52E0204F2B6
:1004E000B40C00400830B20A052E0204F220B20219
:1004F000052D30332AD52F1BE530B42D004007D20F
:100500002BC22302050AC22BD223752F4675300059
:1005100002051FE52FB43200500520B2020530302D
:100520003453200430E529700620B2493045460591
:1005300029E529B41900500820B23A052A020575A8
:10054000B464005003020575B49600500830B2251B
:10055000052B020575E52AB41400400EE52BB428DE
:10056000004007D22CC22402056EC22CD224E4F52E
:1005700029F52AF52BE52652245525B52403020535
:100580009030AC0C75216E302A02C232C233C234B4
:10059000852524A2B2924520421720431420440806
:1005A00030B40AD2430205AD20B402D242A2B492C2
:1005B00044C083C082900FF0303815D531067531B4
:1005C000190205CBE531B40D00400574E80205D2EF
:1005D0007468F030391FC23BD532067532C8020646
:1005E00010E532B4AF005028B4A2005028B48900FE
:1005F0004023020610303B1DD53206753219020623
:1006000010E532B40D00400DB419004003753218E6
:1006100074EA020617746AF0303A1FD53306753350
:10062000C8020635E533B4AF00500AB4A200500A40
:10063000B48900400574E402063C7464F0D082D0B2
:1006400083200005D51A02D200200105D51B02D255
:1006500001200205D51C02D202200305D51D02D2BD
:1006600003200405D51E02D204D0E0D0D032C0D081
:10067000C0E0C0F089F0900FF9E0900FF120E206A1
:1006800020E1220206AB20E109E0540F1207B1027B
:1006900006ABE0540FC0E01207D3400FF0D0E012D9
:1006A00007B10206AB1207D34001F0A9F0D0F0D099
:1006B000E0D0D032C2ACC0D0C0E0C2991206D9306E
:1006C0009812E599C298B43A061206DA0206D47472
:1006D0002112075ED0E0D0D022321207684020F508
:1006E00023120768401925237015E523B4600040E4
:1006F00005F5210206F91207B1742312075E227470
:100700002112075E22C2ACC299743A12075E120827
:100710006E2098223000FA02071F743A12075EE535
:100720002212081BE522F40412081B12074840EAB3
:10073000B423E7D2AC22E599C298B43A05D1DA02E3
:100740000747742112075E2220980D120876209820
:10075000073001FAD302075DE599C3C29822C29916
:10076000F5993099FDC29922C0F0F148401912075D
:100770008BB80113C4F5F0F148400C12078BB80197
:100780000645F0C3020788D3D0F022B43A004014E3
:10079000B441004019B4470040030207AE540F248F
:1007A00009780122B430004005540F780122780204
:1007B00022C0A8C2AAC2ACC0E0E51804540FB51903
:1007C00006D0E0D0A8D322F5182408F9D0E0F7D05D
:1007D000A8C322C0A8C2AAC2ACE519B51804D0A803
:1007E000D32204540FF5192408F9E7D0A8C322B482
:1007F00061004009B47B00400122C3942022C0E084
:10080000C412080CFAD0E012080CFB22540FB40AF0
:1008100000500344302294094440221207FEEA1299
:10082000075EEB12075E22C0E0C082C083E49360E3
:100830000612075EA380F6D083D082D0E022C0E00B
:10084000C0F075F0E6D5F0FD75F0E6D5F0FDD5E029
:10085000F1D0F0D0E022C0E0C0F0F5F074FA113E23
:10086000113E113E113ED5F0F3D0F0D0E022D2007F
:0E087000751A01C20022D201751B32C201228C
:00000001FF
