
:040000000200803248
:03000B0002013FB0
:0100130032BA
:01001B0032B2
:0300230002016275
:0D008000758127120107D2ACD2A902010040
:1001000074051202D180FE75870075A80074FFF592
:1001100080F590F5A0F5B075B80275984075892105
:10012000758805758DFD758CB8758A00D28ED28C58
:10013000D29CC298C299D2AF75180075190022C01E
:10014000D0C0E0C28C758CB8758A00D28C200005B6
:10015000D52102D200200105D52202D201D0E0D063
:10016000D032C0D0C2ACC299309812E599C298B4CE
:100170003A0612018202017D74211201FED2ACD036
:10018000D0321202134020F51C1202134019251C14
:100190007015E51CB480004005F51A0201A1120299
:1001A0005C74231201FE2274211201FE22C2ACC231
:1001B00099743A1201FE1203012098183000FAE5F2
:1001C0001B1202B2F4041202B21201E840F1B4238D
:1001D000EED2AC22E599C298B43A0531820201E52B
:1001E00074211201FED2AC2220980D12030920982E
:1001F000073001FAD30201FDE599C3C29822C299E2
:10020000F5993099FDC29922740A1201FE740D12FB
:1002100001FE22C0F031E84019120236B80113C4C1
:10022000F5F031E8400C120236B8010645F0C30281
:100230000233D3D0F022B43A004014B44100401944
:10024000B447004003020259540F2409780122B434
:1002500030004005540F780122780222C0E0E518F2
:1002600004540FB51904D0E0D322F5182408F9D0AE
:10027000E0F7C322E519B51802D32204540FF5198B
:100280002408F9E7C322B461004009B47B004001AF
:1002900022C3942022C0E0C41202A3FAD0E01202CA
:1002A000A3FB22540FB40A005003443022940944A3
:1002B00040225195EA31FEEB31FE22C0E0C082C0FF
:1002C00083E493600531FEA380F7D083D082D0E031
:1002D00022C0E0C0F075F0E6D5F0FD75F0E6D5F08F
:1002E000FDD5E0F1D0F0D0E022C0E0C0F0F5F07430
:1002F000FA51D151D151D151D1D5F0F3D0F0D0E054
:1003000022D200752205C20022D201752232C2011A
:0103100022CA
:00000001FF
