
:040000000200403288
:03000B000204AD3F
:030013000206865C
:01001B0032B2
:030023000206CC06
:1000400075813512040412043A120496D2ACD2A976
:05005000D2AA020080AD
:10008000E521B46004D2AC80F7B4610ED290900F39
:10009000F07483F074A9F00203D1B46217900FF0EA
:1000A0007403F07412F07429F07422F07419F0C221
:1000B000900203D1B46309900FF07489F00203D168
:1000C000B46409900FF07409F00203D1B46505D24D
:1000D000300203D1B46605C2300203D1B4670CE428
:1000E000F52CF52DF52ED2320203D1B46805C232BB
:1000F0000203D1B4690B752F46753000D233020369
:10010000D1B46A13E4F529F52AF52BD204751EC87B
:10011000C204D2340203D1B46B08E4F518F5190215
:1001200003D1B46C0C1207EB4004900FF1F0020302
:10013000D1B46D101207EB4007F52212071D0180A4
:10014000D2AC0180B46E0B75216085252212071D8B
:100150000180B46F09900FF07499F00203D1B4706C
:1001600009900FF07419F00203D1B47109900FF0E7
:1001700074A2F00203D1B47209900FF07422F0025D
:1001800003D1B47305D2910203D1B47405C29102B4
:1001900003D1B47505C2920203D1B47605D292029E
:1001A00003D1B47705D2380203D1B47805C238023E
:1001B00003D1B47905D2390203D1B47A05C2390228
:1001C00003D1B47B07D2B5D23A0203D1B47C07C2C3
:1001D000B5C23A0203D1B47D05D23B0203D1B47E4D
:1001E00005C23B0203D1B47F09900FF07480F00286
:1001F00003D1B48009900FF07400F00203D1B481F0
:1002000009900FF07492F00203D1B48209900FF0BC
:100210007412F00203D1B48309900FF07490F002CD
:1002200003D1B48409900FF07410F00203D1B485A7
:1002300009900FF07483F00203D1B48609900FF097
:100240007403F00203D10203D1B4900302025202FC
:1002500003D1E534B4012C2093153097121203D842
:10026000C292D204751E64C2047534050203C830FC
:100270004207D238C2420203C8304304C238C243E4
:100280000203C8B4053130040EC2B5C23AC240D22E
:10029000927534010203C830931A209717E4F518B9
:1002A000F519D290900FF07489F07483F0C291D256
:1002B0009275340A0203C8B40A69E518B40700400D
:1002C00020D23930411B300318900FF07490F07435
:1002D00009F01207EB4004900FF1F075341402039B
:1002E000C830422330400320020FC2B5C23AC24098
:1002F000C241D238C2420203C8D241D203751D6442
:10030000C203C2420203C830430AC2381203D8C231
:10031000430203C82093093097061203EA75342379
:100320000203C8B41442E519B40714C239900FF09F
:10033000E510F0E503F0E580F07534190203C830EC
:100340004317C238C2B5C23AC240C241753219D24F
:100350003B75341EC2430203C8209309309706122E
:1003600003EA7534230203C8B41929304317C2388D
:10037000C2B5C23AC240C241753219D23B75341E71
:10038000C2430203C82093093097061203EA75346A
:10039000230203C8B41E0F2093093097061203EA04
:1003A0007534230203C8B4231F304207D238C24237
:1003B0000203C8304307C238C2430203C83093085F
:1003C000209705D292753401E521B49009D2AC4151
:1003D00052752160D2AC0180D2B5D23AD240D2025D
:1003E000751C64C202C241D20322C239C23BC2B5EB
:1003F000C23AC240C241C292D291C290C23820B425
:1004000002D2382275870075A80074FCF59074FF3D
:10041000F580F5A074DFF5B075B802759840758960
:1004200021758805758DFD758CB8758A00D28ED2C0
:100430008CD29CC298C299D2AF22C0D0C0E0E4F561
:1004400018F519F51AF51BF51CF51DF51E7520FF9D
:10045000752190F522F523F526F528F527F52CF5DD
:100460002DF52E752F46F530F529F52AF52B75312A
:10047000197532C87533C8753401F525A2959228CF
:10048000A2B49229A2B29245D22F852524A2B49279
:1004900044D0E0D0D022C0E0900FF9E0E4F0F07456
:1004A00008F0E4F0E0740DF0E4F0D0E022C0D0C039
:1004B000E0C28C758CB8758A00D28CA2959228A265
:1004C000B49229C22AC22BC22CD22F303241E52C41
:1004D000700620B23A304537052CE52CB41900409F
:1004E0001CE52DB40800400BE52EB408004004D2F2
:1004F0002AC222E4F52CF52DF52E02050FB40C00CE
:10050000400830B20A052E02050F20B202052D3038
:10051000332AD52F1BE530B42D004007D22BC22340
:10052000020527C22BD223752F4675300002053CE9
:10053000E52FB43200500520B2020530303453208C
:100540000430E529700620B2493045460529E529E1
:10055000B41900500820B23A052A020592B464008A
:100560005003020592B49600500830B225052B02C4
:100570000592E52AB41400400EE52BB4280040078C
:10058000D22CC22402058BC22CD224E4F529F52AF0
:10059000F52BE52652245525B524030205AD30ACD4
:1005A0000C75216E302A02C232C233C23485252432
:1005B000A2B2924520421720431420440830B40AC6
:1005C000D2430205CA20B402D242A2B49244C083EC
:1005D000C082900FF0303813D531067531190206FC
:1005E00028E531B40D00404502062830391FC23BD2
:1005F000D532067532C8020628E532B4AF0050285D
:10060000B4A2005028B489004023020628303B1DC4
:10061000D53206753219020628E532B40D00400DB8
:10062000B41900400375321874E802062F7468F09C
:10063000303A1FD533067533C802064DE533B4AFE3
:1006400000500AB4A200500AB48900400574E402C4
:1006500006547464F0D082D083200005D51A02D2EB
:1006600000200105D51B02D201200205D51C02D2B3
:1006700002200305D51D02D203200405D51E02D297
:1006800004D0E0D0D032C0D0C0E0C0F089F0900FEC
:10069000F9E0900FF120E20620E1220206C320E1FA
:1006A00009E0540F1207C90206C3E0540FC0E0125C
:1006B00007EB400FF0D0E01207C90206C31207EBA8
:1006C0004001F0A9F0D0F0D0E0D0D032C2ACC0D020
:1006D000C0E0C2991206F1309812E599C298B43A76
:1006E000061206F20206EC7421120776D0E0D0D092
:1006F00022321207804020F523120780401925235B
:100700007015E523B460004005F5210207111207BA
:10071000C9742312077622742112077622C2ACC252
:1007200099743A1207761208852098223000FA024E
:100730000737743A120776E522120833E522F404EB
:1007400012083312076040EAB423E7D2AC22E599DD
:10075000C298B43A05D1F202075F742112077622DB
:1007600020980D12088D2098073001FAD3020775E2
:10077000E599C3C29822C299F5993099FDC2992290
:10078000C0F0F16040191207A3B80113C4F5F0F1ED
:1007900060400C1207A3B8010645F0C30207A0D3BE
:1007A000D0F022B43A004014B441004019B44700DC
:1007B00040030207C6540F2409780122B4300040D8
:1007C00005540F780122780222C0A8C2AAC2ACC088
:1007D000E0E51804540FB51906D0E0D0A8D322F5EF
:1007E000182408F9D0E0F7D0A8C322C0A8C2AAC232
:1007F000ACE519B51804D0A8D32204540FF5192478
:1008000008F9E7D0A8C322B461004009B47B0040D6
:100810000122C3942022C0E0C4120824FAD0E012BE
:100820000824FB22540FB40A0050034430229409D8
:100830004440221116EA120776EB12077622C0E036
:10084000C082C083E4936006120776A380F6D0834B
:10085000D082D0E022C0E0C0F075F0E6D5F0FD75A2
:10086000F0E6D5F0FDD5E0F1D0F0D0E022C0E0C058
:10087000F0F5F074FA1155115511551155D5F0F3E5
:10088000D0F0D0E022D200751A01C20022D2017548
:050890001B32C2012231
:00000001FF
