
:040000000200403288
:03000B00020202EC
:030013000201C027
:01001B0032B2
:0300230002024294
:100040007581311201401201741201A9D2ACD2A9FA
:05005000D2AA020080AD
:10008000E521B4600280F9B46116D290900FF0744B
:1000900092F07499F074A2F074A9F075216080E078
:1000A000B46216900FF07412F07419F07422F074A8
:1000B00029F0C29075216080C7B4630B900FF07473
:1000C00089F075216080B9B4640B900FF07409F069
:1000D00075216080ABB46507D23075216080A1B412
:1000E0006607C2307521608097B46707D2327521E8
:1000F00060808DB46807C2327521608083B469075F
:10010000D2337521600180B46A07D2347521600151
:1001100080B46B0AE4F518F5197521600180B46CA0
:100120000E1203624004900FF1F07521600180B45B
:100130006D0C1203624005F522120291018080FECF
:1001400075870075A80074FCF59074FFF580F5A024
:10015000F5B075B802759840758921758805758D5B
:10016000FD758CB8758A00D28ED28CD29CC298C292
:1001700099D2AF22C0D0C0E0E4F518F519F51AF510
:100180001BF51CF51DF51E7520FF752160F522F588
:1001900023F526F528F527F525A2959228A2B492F5
:1001A00029852524D0E0D0D022C0E0900FF9E0E4EA
:1001B000F0F07408F0E4F0E0740DF0E4F0D0E02228
:1001C000C0D0C0E0C0F089F0900FF9E0900FF120AE
:1001D000E20620E11E0201F920E107E012034A02D3
:1001E00001F9E0C0E0120362400FF0D0E012034AD0
:1001F0000201F91203624001F0A9F0D0F0D0E0D082
:10020000D032C0D0C0E0A2959228A2B49229E526AF
:1002100052245525B524030202208525221202917D
:10022000852524C28C758CB8758A00D28C20000577
:10023000D51A02D200200105D51B02D201D0E0D090
:10024000D032C0D0C0E0C2ACC299309812E599C299
:1002500098B43A0612026602025F74211202ECD2CE
:10026000ACD0E0D0D0321203014020F523120301BC
:10027000401925237015E523B460004005F52102DF
:10028000028512034A74231202EC2274211202EC3A
:1002900022C2ACC299743A1202EC1203EF209822E7
:1002A0003000FA0202AB743A1202ECE5221203A00B
:1002B000E522F4041203A01202D640EAB423E7D2E6
:1002C000AC22E599C298B43A0551660202D3742172
:1002D0001202ECD2AC2220980D1203F720980730BE
:1002E00001FAD30202EBE599C3C29822C299F599AB
:1002F0003099FDC29922740A1202EC740D1202ECBC
:1003000022C0F051D64019120324B80113C4F5F0ED
:1003100051D6400C120324B8010645F0C302032154
:10032000D3D0F022B43A004014B441004019B4478D
:10033000004003020347540F2409780122B430001F
:100340004005540F780122780222C0E0E5180454D9
:100350000FB51904D0E0D322F5182408F9D0E0F73E
:10036000C322E519B51802D32204540FF519240845
:10037000F9E7C322B461004009B47B00400122C305
:10038000942022C0E0C4120391FAD0E0120391FB42
:1003900022540FB40A0050034430229409444022EE
:1003A0007183EA51ECEB51EC22C0E0C082C083E4DF
:1003B00093600551ECA380F7D083D082D0E022C0B7
:1003C000E0C0F075F0E6D5F0FD75F0E6D5F0FDD5AE
:1003D000E0F1D0F0D0E022C0E0C0F0F5F074FA71A6
:1003E000BF71BF71BF71BFD5F0F3D0F0D0E022D2A2
:0F03F00000751A05C20022D201751B32C201220C
:00000001FF
