
:040000000200803248
:01000B0032C2
:0100130032BA
:01001B0032B2
:03002300020137A0
:0B008000758122120107D2AC020100C2
:1001000074051201F680FE75870075A80074FFF56E
:1001100080F590F5A0F5B075B80075984075892107
:10012000758805758DFD758CDC758A40D28ED29CE4
:10013000C298C299D2AF22309804E599C2987E083D
:10014000DEFE323098FDE599C298223099FDC299C1
:10015000F59922740A12014B740D12014B22C0F062
:100160003143120178B8010DC4F5F0314312017822
:10017000B8010245F0D0F022B43A004014B4410076
:100180004019B44700400302019B540F2409780131
:1001900022B430004005540F780122780222B46165
:1001A000004009B47B00400122C3942022C0E0C477
:1001B0001201BBFAD0E01201BBFB22540FB40A00BB
:1001C0005003443022940944402231ADEA314BEBD4
:1001D000314B7468314B2231ADEA314BEB314B225C
:1001E000C0E0C082C083E4936005314BA380F7D0A8
:1001F00083D082D0E022C0E0C0F075F0E6D5F0FDFB
:1002000075F0E6D5F0FDD5E0F1D0F0D0E022C0E009
:10021000C0F0F5F074FA31F631F631F631F6D5F07A
:06022000F3D0F0D0E02253
:00000001FF
